:040000003BEF00F0E2
:100008005C82FACF3BF0FBCF3CF00E01BDA90FEFAD
:1000180000F011EF00F01CEF00F0C5A916EF00F09A
:1000280018EF00F01CEF00F0D7EC82F035EF00F08D
:10003800F2AC21EF00F023EF00F035EF00F0BFAF96
:1000480028EF00F02AEF00F035EF00F0C7AF2FEFF0
:1000580000F031EF00F035EF00F072EC82F035EF90
:1000680000F03CC0FBFF3BC0FAFF5C921100EFEFD1
:0200780081F015
:10FE1800009E03010000000000009E050100000094
:10FE28000C040100000000000000000000000000B9
:10FE380000000000000000000000000000000000BA
:10FE480000000000000000000000000000A0040105
:10FE58007E0401000000000000496E637265617352
:10FE6800652074686520737570706C7920766F6C86
:10FE78007461676520746F206465746563742069B4
:10FE8800662074686520737570706C7920766F6C65
:10FE98007461676520697320677265617465722093
:10FEA8007468616E20746865207472697020706F60
:10FEB800696E742E0D0A0A0A0A0044656372656148
:10FEC80073652074686520737570706C7920766F1F
:10FED8006C7461676520746F206465746563742051
:10FEE80069662074686520737570706C7920766F08
:10FEF8006C74616765206973206C6573732074681E
:10FF0800616E20746865207472697020706F696E04
:10FF1800742E0D0A0A0A0A000D09202A2A204D6F9C
:10FF28006E69746F72696E6720737570706C792072
:10FF3800766F6C74616765207573696E6720484CCD
:10FF48005644202A2A0D0A0A0A00537570706C79E3
:10FF580020766F6C746167652068617320646563DF
:10FF68007265617365642062656C6F7720332E312A
:10FF78003520562E0D0A0A00537570706C7920765C
:10FF88006F6C746167652068617320696E63726560
:10FF9800617365642061626F766520342E33352085
:10FFA800562E0D0A0A004E6577207472697020700B
:10FFB8006F696E7420697320332E313520562E0DEB
:10FFC8000A004E6577207472697020706F696E74CC
:10FFD80020697320342E333520562E0D0A005472B2
:10FFE800697020706F696E7420697320332E313503
:07FFF80020562E0D0A000047
:020000040001F9
:100000009DEC82F0F28EF28CA60E3D6E050E3E6ED9
:10001000010E3F6EC8EC82F0200E566EFF0E576E3A
:100020001BEC82F0E60E566EFF0E576E1BEC82F054
:10003000C20E566EFE0E576E1BEC82F03A04D8A428
:1000400024EF80F026EF80F06DEF80F0000E3A6E26
:100050008690030E5B6EE80E5A6EA8EC82F0E806FE
:10006000D8A435EF80F037EF80F052EF80F0520ED9
:10007000566EFF0E576E1BEC82F0010E3D6E0D0E9C
:100080003E6E000E61EC82F0CA0E566EFF0E576E89
:100090001BEC82F0610E566EFE0E576E1BEC82F06A
:1000A0001EEF80F0800E566EFF0E576E1BEC82F036
:1000B000000E3D6E070E3E6E010E61EC82F0AE0E3C
:1000C000566EFF0E576E1BEC82F0C20E566EFE0E81
:1000D000576E1BEC82F01EEF80F05A06D8A05B062C
:1000E0005A505B10D8A477EF80F079EF80F01EEFC4
:1000F00080F08680030E5B6EE80E5A6E1EEF80F075
:100100003BEF00F041504210D8B489EF80F08BEF04
:1001100080F094EF80F041504210D8A492EF80F02C
:1001200094EF80F099EF80F03F5082EC82F0E6EFA0
:1001300080F020EE0AF04150D9264250DA22DE50FB
:10014000DE10D8B4A6EF80F0A8EF80F0C3EF80F007
:1001500020EE0AF04150D9264250DA2210EE03F088
:100160004150E1264250E222DE50E65CE650800A31
:10017000476EDE50800A4758D8B0C1EF80F0C3EF19
:1001800080F0E6EF80F020EE03F04150D926425097
:10019000DA22DECF43F0DDCF44F041C0D9FF42C0C8
:1001A000DAFFDECF45F0DDCF46F043504524D96E6F
:1001B00044504620DA6E3FC0DFFF20EE03F041508E
:1001C000D9264250DA22DE2A000EDD221200000E6D
:1001D000826E000E836E000E846E000E856E010E20
:1001E000866E876888688968FE0E8A6E060E8B6E3A
:1001F0000F010C697F0E146F1C69FE0E216F060E35
:10020000296F000E0B6F000E136F000E1B6F000E98
:10021000206F000E286F000E0A6F000E126F000E86
:100220001A6F000E1F6F000E276F09691169196997
:100230001E69070E266F0869106918691D690F0E7F
:10024000256F0F0E0E01886F0B0EFA6F000E0F0157
:10025000076F000E066F000E056F000E0F6F000E89
:100260000E6F000E0D6F000E176F000E166F000E52
:10027000156F000E246F000E236F000E226F120008
:100280004AC0D9FF4BC0DAFFDECFF6FFDDCFF7FF64
:10029000000EF86E0800F550250AD8A452EF81F040
:1002A00054EF81F06CEF81F04AC0D9FF4BC0DAFF08
:1002B000DE2A000EDD22000E346E000E336E33C0D7
:1002C00039F0356836684AC0D9FF4BC0DAFFDE2AFC
:1002D000000EDD2282EF81F04AC0D9FF4BC0DAFF69
:1002E000DECFF6FFDDCFF7FF000EF86E0800F55009
:1002F0003F6E406A48C041F049C042F082EC80F055
:1003000063EF81F0120050C054F051C055F097EFE8
:1003100081F04EC048F04FC049F0540E4A6E000EB6
:100320004B6E52C04CF053C04DF040EC81F054C0C5
:10033000F6FF55C0F7FF000EF86E0800F5500009F3
:10034000D8A4A5EF81F0A7EF81F089EF81F0000E2E
:100350004F6E000E4E6E1200F29A0E01C591F280A1
:10036000000E3D6E000E3E6E000E3F6EC1EC82F040
:100370000E01C593F282000E3D6E000E3E6E000E21
:100380003F6EBAEC82F00E01C595F284000E3D6E10
:10039000000E3E6E000E3F6EB3EC82F01200480E6F
:1003A0000E019A6F900E986F260E996F190E966F28
:1003B000000E976F000E3D6E000E3E6E000E3F6EFB
:1003C00050EC82F0000E3D6E000E3E6E000E3F6E51
:1003D0003FEC82F0000E386E000E376E1200AC0E4D
:1003E000F66E050EF76E010EF86E0900F5CF5AF0A5
:1003F0000900F5CF5BF000EE01F03A0EEE6AE80678
:10040000FDE15C905C92000100EF80F0000E3D6E1B
:100410000E01C8AD0EEF82F010EF82F019EF82F0FE
:1004200099AB15EF82F017EF82F019EF82F0010E11
:100430003D6E3D501200580E586E000E596E000E63
:100440004E6E000E4F6E56C050F057C051F0580E11
:10045000526E000E536E83EC81F01200070E0F01F6
:100460002B6F810E2A6FB00E3D6E050E3E6E010E93
:100470003F6EC8EC82F00E01C79FBF8F12003D5047
:100480003E103F10D8B447EF82F049EF82F04FEFB3
:1004900082F03DC02AF03EC02BF03FC02CF012008D
:1004A0003D503E103F10D8B458EF82F05AEF82F022
:1004B00060EF82F03DC02DF03EC02EF03FC02FF027
:1004C00012003F6E3FB003D00F012A9102D00F01FE
:1004D0002A813DB002D02A9302D00F012A833EC068
:1004E0002BFF12000E01C79F02D881EF82F005009A
:1004F000FA6E3050FD6E3150FE6E3250FF6EFA5083
:10050000120012003E6E06EC82F00009D8B48BEFA8
:1005100082F08DEF82F083EF82F03E50CFEC82F0DC
:100520001200600E0E01D36F000ED56F000ED76F54
:10053000000ED96F000ED86F120091EC82F0E7EC3C
:1005400080F0CFEC81F02EEC82F0ACEC81F0120068
:100550000F012ABBAEEF82F0B1EF82F0010EB2EFD5
:1005600082F0000E12003DC021F03EC022F03FC0DC
:1005700023F012003DC024F03EC025F03FC026F01D
:1005800012003DC027F03EC028F03FC029F0120005
:100590003DC030F03EC031F03FC032F012003D6E41
:1005A0003DC095FE1200010E3A6E1200E8031200E3
:0205B000120037
:020000040020DA
:10000000FFFFFFFFFFFFFFFFFFFFFFFFFFFFFFFF00
:10001000FFFFFFFFFFFFFFFFFFFFFFFFFFFFFFFFF0
:10002000FFFFFFFFFFFFFFFFFFFFFFFFFFFFFFFFE0
:10003000FFFFFFFFFFFFFFFFFFFFFFFFFFFFFFFFD0
:10004000FFFFFFFFFFFFFFFFFFFFFFFFFFFFFFFFC0
:10005000FFFFFFFFFFFFFFFFFFFFFFFFFFFFFFFFB0
:10006000FFFFFFFFFFFFFFFFFFFFFFFFFFFFFFFFA0
:10007000FFFFFFFFFFFFFFFFFFFFFFFFFFFFFFFF90
:10008000FFFFFFFFFFFFFFFFFFFFFFFFFFFFFFFF80
:10009000FFFFFFFFFFFFFFFFFFFFFFFFFFFFFFFF70
:1000A000FFFFFFFFFFFFFFFFFFFFFFFFFFFFFFFF60
:1000B000FFFFFFFFFFFFFFFFFFFFFFFFFFFFFFFF50
:1000C000FFFFFFFFFFFFFFFFFFFFFFFFFFFFFFFF40
:1000D000FFFFFFFFFFFFFFFFFFFFFFFFFFFFFFFF30
:1000E000FFFFFFFFFFFFFFFFFFFFFFFFFFFFFFFF20
:1000F000FFFFFFFFFFFFFFFFFFFFFFFFFFFFFFFF10
:020000040030CA
:0C000000FFFFFFFF9FFFFFFFFFFFFFFF60
:00000001FF
